S0190000566F73746F6B5F4143555F415F44656275672E73313937
S30D0800000080340220553703087D
S315080030008034022079670008076C0008076C0008FE
S3150800301000000000000000000000000000000000A2
S31508003020000000000000000000000000076C000817
S31508003030000000000000000081F401082DF10108DD
S31508003040076C0008076C0008D3230308076C000800
S31508003050076C0008076C0008076C0008E91E0308DF
S31508003060076C0008076C0008076C0008076C000866
S31508003070076C0008076C0008491F0308076C00085E
S31508003080E11F0308076C0008076C000819C002084E
S31508003090076C00084F710208076C0008076C0008E7
S315080030A0076C0008076C0008076C0008076C000826
S311080030B0496F0208FD6F0208076C000853
S309080030BCFFFFFFFF06
S315080030C00DF0ADBA0DF0ADBA0DF0ADBA003000088E
S315080030D0FB8F0308FC8F0308EFBEADDEEFBEADDE47
S309080030E0EFBEADDEA6
S315080030E470B582B004000E00072000F0F3FB0090D0
S315080030F43100684601F0A1FB6D466878002803D1C3
S315080031043100684601F081FD2878207073BD0000FF
S3150800311470B582B004000E00207800F0DBFB009046
S315080031246D462878401E082800D990E001A1095C5C
S3150800313449008F44041124373C485B6E81003100F2
S31508003144684601F0DBFB6878002800D07FE0310090
S31508003154684601F033FD7AE03100684601F0C4FDA3
S315080031646878002873D13100684601F021F8687838
S3150800317400286CD13100684601F026FD67E031006D
S31508003184684601F0B1FD6878002860D131006846C8
S3150800319401F0C6F86878002859D13100684601F06C
S315080031A41AFD54E03100684601F01CFD4FE0310079
S315080031B4684601F07FF96878002848D131006846E6
S315080031C401F016FD43E03100684601F08DFD68788C
S315080031D400283CD13100684601F0FAF968780028DD
S315080031E435D13100684601F009FD30E03100684602
S315080031F401F07AFD6878002829D13100684601F083
S3150800320471FA6878002822D13100684601F0FDFC7D
S315080032141DE03100684601F067FD6878002816D17C
S315080032243100684601F0D4F9687800280FD13100D6
S31508003234684601F0E3FC0AE03100684601F05EFBEB
S315080032446878002803D13100684601F0E5FC28783F
S31508003254207073BD38B505000C00287800F03AFBD9
S31508003264009068460078012808D003280BD0062861
S315080032740ED008280CD009280FD012E02100684681
S3150800328400F095FF0DE02100684601F0A3F808E078
S315080032942100684601F013FA03E02100684601F0AC
S315080032A489FC0020287031BD38B50C0015000021B2
S315080032B46170401E072800D90BE302A14000095A91
S315080032C48F4400BF100036009E00F8017E02F80203
S315080032D42C05B8052078072800D0FAE202202070C9
S315080032E42900200000F0E6FF6078002800D0EEE20E
S315080032F42900200001F068FCE9E22078012802D0C0
S3150800330409281BD031BD2900200000F050FF2900F0
S31508003314200001F0C2FA2900200001F0D4FA07209F
S3150800332420702900200001F088FA6078002800D06F
S31508003334CDE22900200001F068FCC8E2290020003B
S3150800334401F038FC042020702900200001F04AF816
S315080033546078002800D0BAE22900200001F042FC77
S31508003364B5E22078401E082800D9B2E201A140003F
S31508003374095A8F441000360054007A009800B600A3
S31508003384DC00FA0020012900200000F010FF0520C7
S3150800339420702900200001F0CDF86078002800D0BC
S315080033A495E22900200001F023FC90E20520207014
S315080033B42900200001F0BEF86078002800D086E2D3
S315080033C42900200001F014FC81E22900200001F004
S315080033D401F8052020702900200001F0ABF8607878
S315080033E4002800D073E22900200001F001FC6EE2F7
S315080033F4052020702900200001F09CF86078002838
S3150800340400D064E22900200001F0F2FB5FE2052007
S3150800341420702900200001F08DF86078002800D07B
S3150800342455E22900200001F0E3FB50E229002000C0
S3150800343401F045F9052020702900200001F07AF8EA
S315080034446078002800D042E22900200001F0D0FB71
S315080034543DE2052020702900200001F06BF8607811
S31508003464002800D033E22900200001F0C1FB2EE237
S315080034742900200001F023F90520207029002000E6
S3150800348401F058F86078002800D020E229002000CE
S3150800349401F0AEFB1BE22900200001F08BFB05209E
S315080034A420702900200001F045F86078002800D033
S315080034B40DE22900200001F09BFB08E2207805288C
S315080034C400D006E2280001F074F800281BD0280072
S315080034D401F07CF8002816D02900200001F0E0FB52
S315080034E42900200001F0EFF90120207029002000AE
S315080034F400F05CFE6078002800D0E8E1290020008E
S3150800350401F05CFBE3E1280001F053F8002805D03C
S31508003514280001F05BF8002800D0DAE12900200031
S3150800352401F0BBF9072020702900200001F085F975
S315080035346078002800D0CAE12900200001F065FB64
S31508003544C5E12078012804D0022815D0092822D0FC
S3150800355431BD2900200000F02AFE08202070290029
S31508003564200001F075F86078002800D0AFE1290042
S31508003574200001F043FBAAE1032020702900200063
S3150800358400F001FF6078002800D0A0E1290020009F
S3150800359401F021FB9BE12900200001F00BFB06202A
S315080035A420702900200001F053F86078002800D024
S315080035B48DE12900200001F021FB88E12078401ED6
S315080035C4082800D985E102A14000095A8F4400BFA2
S315080035D4120048006E009C000203C20044016A01FE
S315080035E4A0012900200000F0E2FD2900200001F0D6
S315080035F454F92900200001F066F9072020702900F3
S31508003604200001F01AF96078002800D05FE129004B
S31508003614200001F0FAFA5AE12900200001F03DF9E8
S31508003624072020702900200001F007F96078002897
S3150800363400D04CE12900200001F0E7FA47E129000F
S31508003644200000F0C7FE2900200001F026F9072013
S3150800365420702900200001F0F0F86078002800D0D6
S3150800366435E12900200001F0D0FA30E129002000D4
S3150800367401F013F9072020702900200001F0DDF875
S315080036846078002800D022E12900200001F0BDFA64
S315080036941DE1280000F08DFF00281AD1290020001A
S315080036A401F00DF82900200001F0F7F829002000A0
S315080036B401F009F9072020702900200001F0BDF85F
S315080036C46078002800D002E12900200001F09DFA64
S315080036D4FDE0280000F06DFF002800D1F9E029007C
S315080036E4200000F0ECFF2900200001F0D9FA290097
S315080036F4200001F0E8F8012020702900200000F0DD
S3150800370455FD6078002800D0E1E02900200001F08A
S3150800371455FADCE02900200001F0BFF807202070E4
S315080037242900200001F089F86078002800D0CEE04E
S315080037342900200001F069FAC9E02900200000F0F8
S31508003744BEFF2900200001F0A8F82900200001F096
S31508003754BAF8072020702900200001F06EF8607876
S31508003764002800D0B3E02900200001F04EFAAEE0AC
S31508003774280000F01EFF00281AD02900200001F0B6
S3150800378419FA2900200001F08BFA2900200001F01B
S315080037949AF8012020702900200000F007FD6078BF
S315080037A4002800D093E02900200001F007FA8EE0F3
S315080037B4280000F0FEFE002800D08AE02900200038
S315080037C401F0F8F92900200001F067F82900200023
S315080037D401F079F8072020702900200001F02DF85F
S315080037E46078002873D12900200001F00EFA6EE0F3
S315080037F42078032804D0062814D0082828D031BDF8
S315080038042900200000F0E6FD02202070290020008F
S3150800381400F050FD6078002859D12900200001F0F5
S31508003824D3F954E02900200000F049FF29002000BC
S3150800383401F04FF8092020702900200001F0B6F99C
S315080038446078002843D12900200001F0E5F93EE01C
S315080038542900200000F033FF2900200001F039F880
S31508003864012020702900200000F0A0FC60780028C0
S315080038742DD12900200001F0A1F928E0207802289A
S3150800388402D0072812D031BD2900200001F0CAF958
S31508003894092020702900200001F088F960780028A2
S315080038A415D12900200001F0B7F910E029002000FD
S315080038B401F0B8F9092020702900200001F076F9F2
S315080038C46078002803D12900200001F0A5F9012019
S315080038D4607031BD81B06946087000204870009850
S315080038E401B07047F0B587B000273800BB4C05E037
S315080038F43800A070FD202070607001200028F7D0E1
S31508003904B74801F0D0FBB74801F0D3FB01F012FF2A
S3150800391403F09CF9002800D0CCE003F0CEFD007833
S315080039248007800F012828D0AF4D3A460121280088
S315080039340C3004F0BBF83A4604212800083004F099
S31508003944B5F83A460721280004F0B0F83A460421A7
S315080039542800103004F0AAF83800207120790028CD
S3150800396400D0A7E001206946087101A9681DFFF780
S31508003974B7FB2079401C2071F0E7380020710FE06E
S315080039843800A8703800E8706A78217904F0C6F916
S31508003994287104A9207901F06BFF2079401C207155
S315080039A42079002800D085E0384601F0A5FF00906C
S315080039B4684602782179384604F0B0F906003D00D5
S315080039C4012804D9801E022804D9C01E05D16846D8
S315080039D4057808E06846457805E02379012204213C
S315080039E45A2004F0D5FA2A002179384604F0F7F962
S315080039F4072800D1380001282AD004D303282ED05A
S31508003A04CBD3042844D0012E01D0042E0DD121791C
S31508003A147548CA00521A8018037842781206120C9E
S31508003A241343009A384604F007FC257900F0B6F8E3
S31508003A34002808D0002DB0D100F0FAFA2179062022
S31508003A4400F09CFBA9E72900062000F097FBA4E7F1
S31508003A54022EA2D02179052000F090FB9DE720795B
S31508003A6401F04AFF009002AD3800287068460078D5
S31508003A74687068464078A8703800E8706A782179D2
S31508003A8404F04CF9287102A9207901F0F1FE84E7C3
S31508003A94207901F031FF009004AD3800287068469B
S31508003AA400786870B61E022E00D969E76846407821
S31508003AB4A87067E727714C4D13E0384601F0A7F95B
S31508003AC46A4621790E2004F007FE002806D00098DD
S31508003AD4002803D12179042000F050FB2079401CEA
S31508003AE42071207900280DD16879002802D005288C
S31508003AF4E3D0F3E701206946087101A9681DFFF7B9
S31508003B04EFFAEBE707B0F0BD38B50500364C2A00E6
S31508003B140021607A04F036F9FF210902401A0228C6
S31508003B2402D9103801282ED8012001F0CCFA012038
S31508003B3405F0C6FBA07908210143A17100200BE01A
S31508003B440221002000F028F9002000F04FF8002197
S31508003B54084600F0A1F80120002804D16079052858
S31508003B64EED10421EDE7A079F721014004200843AA
S31508003B74A0712900002000F08FF80121002000F030
S31508003B840BF9040000E00024200005D100F050FAE7
S31508003B940021062000F0F2FA200032BD124880798E
S31508003BA4010089080800C007C00F7047B049C20061
S31508003BB4121A8A185279032A03D180000818007A3F
S31508003BC4704700207047AA49C200101A09180878D5
S31508003BD44A781206120C104370470000444F00201E
S31508003BE4D53F000805400008B803002070B582B028
S31508003BF4030005D0012203215A2004F0C9F973BD34
S31508003C0405F02EFC012806D00023012206215A209D
S31508003C1404F0BEF973BD002005F02EFE00252E0023
S31508003C24934C761C284601F061FF2073010006D0E8
S31508003C34012807D16079092801D0012802D1F6B2F2
S31508003C440A2EEEDBF6B20A2E05DB33000122052125
S31508003C545A2004F09DF9874805710125207B082818
S31508003C6405D1280069460870601DFFF7F3FA00209D
S31508003C7400F002F9A0792900084206D0FE21014085
S31508003C84A1710021032000F079FA68460570694697
S31508003C94601DFFF73DFA73BDF0B583B00C0000272D
S31508003CA43E00010006D00300012203215A2004F035
S31508003CB46FF92BE005F0D4FB012806D03346012220
S31508003CC406215A2004F064F920E0694D687907282A
S31508003CD41CD122003146687A04F020F8012815D848
S31508003CE42C726C46687A207038006070287AA07046
S31508003CF4E77062783146207804F010F82071694636
S31508003D04304601F0B5FD05F03CFF01263000FEBD46
S31508003D1438B50D000024010006D003000122032152
S31508003D245A2004F035F913E005F09AFB012806D069
S31508003D342346012206215A2004F02AF908E0BB4842
S31508003D444079012801D0092802D14A48057001247E
S31508003D54200032BD38B50D000024010006D003004A
S31508003D64012203215A2004F013F913E005F078FB25
S31508003D74012806D02346012206215A2004F008F910
S31508003D8408E0AA484079012801D0092802D139480F
S31508003D9445700124200032BD70B582B00D0000269E
S31508003DA43400010006D00300012203215A2004F03E
S31508003DB4EFF85BE005F054FB012806D02346012200
S31508003DC406215A2004F0E4F850E0204601F094FD58
S31508003DD40090062D4AD801A0405D8744060E424C41
S31508003DE4668E78002348867001243FE08F48407920
S31508003DF4072803D169464978002901D1062835D10F
S31508003E0406F056FB012804D106F05BFE012800D112
S31508003E140126002E2AD0012420001649887025E0A0
S31508003E24022014498870012420E080484079092832
S31508003E3403D0012801D0022818D103200D4988701F
S31508003E44012413E07948407905280FD1042009494B
S31508003E54887001240AE075484079092801D00128A8
S31508003E6404D12146022000F089F90124200076BDF8
S31508003E74B8030020444F0020F1B582B000206946FB
S31508003E8448706846017A022006F08AFE6946087078
S31508003E9468460078FF2846D06846007806F004FF8E
S31508003EA469460C7A614FA1007D180121FE26EA7A3B
S31508003EB4324008401043E872084234D068464170DC
S31508003EC4007806F0B9FFC0B2010002D0022908D072
S31508003ED428E0E87A0640EE726846007806F002FFA3
S31508003EE421E0E87A0640EE726846007806F0FAFEA3
S31508003EF46846007A01F000FDE100091B79180B7881
S31508003F044A781206120C134302006846017A002006
S31508003F1404F092F900F08CF86846017A062000F05D
S31508003F242DF900E0A872012000F09CF86846407854
S31508003F34002824D16846047A9B4861000919401868
S31508003F44817802291BD1002181706846007A01F024
S31508003F54D3FC3649E200121B89180B784A781206F4
S31508003F64120C134302006846017A002004F064F92F
S31508003F7400F05EF86846017A062000F0FFF8684605
S31508003F84017A242006F00CFE0400FF2C0BD006F060
S31508003F948BFE002807D0200006F04EFFFD2802D12C
S31508003FA4200006F09FFE6846017A232006F0F8FDF5
S31508003FB40400FF2C0BD006F077FE002807D020005B
S31508003FC406F03AFFFD2802D1200006F08BFEF7BD65
S31508003FD480B5694600F0C6FF009800280FD080799E
S31508003FE4FF280CD0009989780907090F0F4ACB00D6
S31508003FF4591A511808718879012202438A7101BD38
S3150800400480B5694600F0AEFF009800280CD0007908
S315080040144009C00708D5009880780107090F624847
S315080040240171052000F0AAF801BD0000B8030020BC
S3150800403410B5BA4CA07901008908C90711D5FB2126
S315080040440140A1710021012006F0AAFDFF2802D033
S3150800405406F0F2FE2072002001F035F8002005F083
S315080040642FF910BDF1B586B0684600BF1EA1182207
S3150800407406F0A0FF00252C001BE06846E900471857
S3150800408449480179387806F08BFD0600FF2E0FD0D3
S3150800409406F0D2FE78606846007E002808D0300014
S315080040A406F002FE002803D00124300006F01AFEAA
S315080040B46D1C032DE1D3002C03D16846007E00282D
S315080040C410D1964838490979890040180199E1229E
S315080040D412015143039A13019A1A92008918059AF0
S315080040E48918016107B0F0BD130000000000000044
S315080040F41400000000000000150000000000000085
S315080041047CB50600284D297984488A008018407AA7
S315080041146C462070032203F0D5FD6070A67000205B
S31508004124E070032020716946287901F0A1FB2879FB
S3150800413401F08CFB287905F079FB06F0F0FF287965
S3150800414407F083F807F057F907F097FB07F0FAFF2B
S3150800415408F05CF808F0ACF908F03FFC802009F098
S31508004164D9F973BD002802D18020084301E0480626
S31508004174400ECF490C4A12798854704730B583B03B
S3150800418405006648CA00511A44186079FFF7A2FB6D
S31508004194009001206946087101AA2800FFF784F8EF
S315080041A468460078607137BD444F002070477047F1
S315080041B4F3B583B0864E59483179CA00511A401866
S315080041C48178C2781206120C114309290CD30021EE
S315080041D48170C170514831798900401801690029F4
S315080041E40BD0491E016108E08178C2781206120CC8
S315080041F41143491C8170090AC17000273C003D001F
S315080042044648317989004018C17ACA0719D5FE2269
S315080042140A40C2723179022006F0C2FC3F4932795B
S3150800422492008918897A032905D0052907D101241A
S3150800423406F058FD05E0012506F054FD01E006F0F8
S315080042447DFD31790800354A8300D2181369002B9D
S3150800425401D0002C1ED0049B1B78002B1AD06C4668
S31508004264507A2070107A60703800608062782078FE
S3150800427403F054FD20716946307901F0F9FA2748AC
S315080042843179890040180761049A03990820FFF7D1
S315080042940BF80DE04100081830188178032901D07D
S315080042A4002D05D08770049A03990520FEF7FCFFB4
S315080042B405B0F0BDF1B582B00F00454D174E28790B
S315080042C4C100081A301800218170C1702979880044
S315080042D43018407A6C462070022203F0F3FC6070B2
S315080042E4287981007118097AA1700021E1700221E8
S315080042F42171694601F0BCFA3900029800F0F4FC11
S31508004304287905F093FA002009F05AFA09F0B6FA62
S31508004314287906F09AFF09F090FCF7BDB803002047
S3150800432470B504000D002A4801792D4A8B00D2186D
S31508004334D37ADE0716D5FE201840D072907A012863
S3150800434420D1022006F02CFC2978002907D006F093
S31508004354C9FC2A0021000720FEF7A6FF70BD06F057
S31508004364EDFC70BD4A00511840188178012909D11D
S31508004374002181702878002804D02A00210007200B
S31508004384FEF792FF70BDF1B582B00F00104D297982
S31508004394134E88003018407A6C462070042203F0C5
S315080043A491FC6070287981007118097AA17000213E
S315080043B4E17004212171694601F05AFA390002981C
S315080043C400F092FC09F049FF287906F042FFF7BD90
S315080043D4444F002080B5C048007906F03FFF01BD70
S315080043E4B8030020F8B50600BB4DBC4C2879C100BB
S315080043F4081A20188178C2781206120C1143491C2F
S315080044048170090AC1702879C100081A20188178B0
S31508004414C2781206120C1143052917D3002181709C
S31508004424C1702879C100081A201801784278120642
S31508004434120C1143AA4A914208D00178427812060E
S31508004444120C1143491C0170090A4170287901F0BC
S3150800445453FA02002979C800401A201803784778C5
S315080044643F063F0C3B43012003F0E6FE2879C100D2
S31508004474081A201800218170C1702879C100081A09
S315080044842018002101704170287980002018007ACC
S31508004494A1798908C90707D50400FFF7C9FD3100C2
S315080044A42000FFF72DFEF1BD3100FFF729FEF1BD0F
S315080044B42C040020F1B50F00874C20790100874DA4
S315080044C48A00AA18D37ADE0720D5FE211940D172AC
S315080044D40100022006F064FB0600207981006918B1
S315080044E4897A04290ED100F0BAFD00280AD03000D2
S315080044F406F0F8FBFFF79CFD3A0000990420FEF746
S31508004504D3FEF1BD300006F019FCF1BD4A0051187E
S3150800451461188A78042A0CD100228A7000F09FFD5B
S31508004524002806D0FFF784FD3A0000990420FEF718
S31508004534BBFEF1BDF0B583B0674C684E2079C10067
S31508004544081A301800218170C1702079C100081A30
S3150800455430180021017041706D460F4638002870E6
S3150800456420790522010080003018407A03F0AAFB5E
S3150800457468702079C100091A71180979A970EF7051
S3150800458405212971694601F073F9207901F05EF96C
S31508004594207905F04BF9207900F039FC384609F002
S315080045A40FF906F028FF07F068F9207906F04DFEA2
S315080045B4F7BD80B5CE4A48480179002003F0BCFB14
S315080045C4FF2801D0012002BD002002BD002070474B
S315080045D4F8B506000C00404D287901003F4A8B00C7
S315080045E4D218D37ADF071DD5FE211940D172917AE4
S315080045F401292CD10100022006F0D2FA21780029DB
S315080046040DD006F06FFB287901F02CFA287901F011
S3150800461452FA220031000720FEF746FEF1BD06F0E5
S315080046248DFBF1BD4A00511869188A78012A0ED102
S3150800463400228A702178002909D001F013FA287912
S3150800464401F039FA220031000720FEF72DFEF1BDEC
S31508004654FEB507000E00204C207901F024FC2179D0
S315080046641E488A008018407A01AD2870042203F097
S3150800467429FB6870207901F03FF9009068460078B4
S31508004684A8700020E8700420287101A9207901F097
S31508004694EFF83100380000F027FB207905F020F9FF
S315080046A4207909F0FBFD09F0D8FD207906F0D1FD43
S315080046B409F0B9FF0AF071F90AF0DBFBF7BD80B51A
S315080046C40548007906F0CAFD06F095FE0AF061F978
S315080046D40AF0CBFB01BD0000444F0020B8030020BC
S315080046E4FFFF0000F3B583B00026824D2979012027
S315080046F406F056FA0400804FFF2C3DD006F0D4FA93
S31508004704002839D0200006F097FB694608702879F6
S315080047140A78010080003818407A03F0FFFA012865
S3150800472427D868460078002802D1287905F07EF84B
S31508004734287980003818694609780172200006F03D
S31508004744D1FA29798800381801AC427A227032469F
S315080047546270007AA0701046E0706278207803F0E0
S31508004764DDFA207101A9287901F082F805F009FA21
S3150800477402E0200006F0E2FA297988003818C27A9D
S31508004784D3071BD5FE231340C372807A012815D19B
S31508004794022006F005FA04000498007800280AD0D6
S315080047A4287980003818007A002804D001262000C9
S315080047B406F098FA02E0200006F0C0FA2979080003
S315080047C442001218AA189378012B01D0002E32D071
S315080047D40023937080003818027A002A1ED00269D2
S315080047E4002A15D101AC427A2270007A6070184604
S315080047F460806278207803F091FA207101A92879FB
S3150800480401F036F8049A03990820FEF74DFD12E0E4
S31508004814049A03990120FEF747FD0CE00B020122D6
S3150800482407215A2003F0B4FBFFF702FC049A039904
S315080048340620FEF739FD05B0F0BD70B504000E007C
S315080048442C4D2D482979CA00511A411800228A701C
S31508004854CA702979CA00511A40180021017041709A
S315080048640846FFF7FFFB287900F0DBFA3100200041
S3150800487400F03AFA002008F0A3FF0AF09AFC0AF0BE
S315080048844EFF06F0B8FD06F0F8FF06F061FC28793D
S3150800489406F0DBFC0BF08CFD70BD1CB5154C2079BD
S315080048A41549820089186A464B7A13700023537097
S315080048B4097A9170D3701371694600F0D9FF20798B
S315080048C400F0C4FF13BD80B50A48007904F0AEFFB2
S315080048D401BD80B50748007905F016F809F0C3FC50
S315080048E409F0A6FE0CF03CF80CF0BFF801BD000078
S315080048F416FF0000444F0020B8030020FEB5070049
S315080049040E00CA4CA84D2079C100081A28188178C7
S31508004914C2781206120C1143491C8170090AC17027
S315080049242079C100081A28188178C2781206120C50
S3150800493411430A2917D300218170C1702079C10057
S31508004944081A2818017842781206120C1143D34A19
S31508004954914208D0017842781206120C1143491C78
S315080049640170090A41702179242006F019F969466B
S3150800497448702179232006F013F9694608702079CE
S3150800498401006A18127B022A04D0032A08D0072ACF
S315080049941DD033E0320039000220FEF785FCF7BD4E
S315080049A400F0AAFF2179CA00521AAA181378547873
S315080049B42406240C23430200002003F03DFCFFF7E1
S315080049C437FB320039000620FEF76EFCF7BD00A857
S315080049D4C01C01F030F8207900F080FF217900AA84
S315080049E4D21C525C03F0ECF9002800D0ABE0237922
S315080049F4012211465A2003F0CBFAF7BD890069183B
S31508004A04CA7AD2072DD5CA7AFE231340CB7201007F
S31508004A14022006F0C5F869468870207980002818AF
S31508004A24807A032818D100A8C01C01F004F820795C
S31508004A3400F054FF217900AAD21C525C03F0C0F995
S31508004A44002809D06846807806F04CF93200390007
S31508004A540520FEF729FCF7BD6846807806F06EF94E
S31508004A64F7BD68464078FF281DD06846407806F0AA
S31508004A741BF9002817D06846407806F0DDF90100CE
S31508004A84C9B2207901F034FA012802D0022827D0C5
S31508004A9404E06846407806F025F9F7BD684640788C
S31508004AA406F04CF9F7BD68460078FF2827D0684613
S31508004AB4007806F0F9F8002821D06846007806F050
S31508004AC4BBF90100C9B2207901F05EFA012802D0C7
S31508004AD4022805D00EE06846007806F003F9F7BD0B
S31508004AE46846007806F0FEF8320039000220FEF720
S31508004AF4DBFBF7BD6846007806F020F9F7BD207998
S31508004B04C100091A69188A79430018182018837885
S31508004B14032B03D013005B08DB071AD50023837025
S31508004B24FD201040887100A8C01C00F084FF20797D
S31508004B3400F0D4FE217900AAD21C525C03F040F995
S31508004B44002800D153E7320039000520FEF7ACFBF4
S31508004B54F7BD0178FD290FD0207901F0C9F902289B
S31508004B6404D1320039000220FEF79EFBFD2021798C
S31508004B744A0051186054F7BD4178FD2920790FD0B1
S31508004B8401F002FA022804D1320039000220FEF7A5
S31508004B948BFB2079410008182018FD214170F7BDC8
S31508004BA404F0E5FFF7BD0000B803002080B50BF05C
S31508004BB421FF01BD80B50CF0DCFA01BD80B50821E2
S31508004BC40120FFF7CFFA01BD80B50800032100785C
S31508004BD4FFF7C8FA01BD80B5080007210078FFF77A
S31508004BE4C1FA01BD80B504210120FFF7BBFA01BD56
S31508004BF480B506210120FFF7B5FA01BD80B5080086
S31508004C0405210078FFF7AEFA01BD80B50800012139
S31508004C140078FFF7A7FA01BD80B502210120FFF746
S31508004C24A1FA01BD10B5014C02E000BF444F0020B3
S31508004C34207904F0FBFD2079284982008918097A2D
S31508004C4403F0A8FA0CF04DFC05F032FF06F05AFA08
S31508004C5406F0FAFD0CF0DDFC0AF0ABFA0CF042FDA6
S31508004C640AF05DFD0CF0B4FF0DF039F807F04DFAC3
S31508004C7408F004FE00200DF057F807F0C7FA07F00D
S31508004C8405FC07F0B4FE0DF0F1FC7F2008F042FCA9
S31508004C940DF082FE0BF08CFB10BD0000FFFF000038
S31508004CA430B583B00E4D29796C460C488A008018B5
S31508004CB4407A20700B4A002003F03EF8607000200A
S31508004CC46080012020716946287900F0D1FD287991
S31508004CD400F0BCFD04F055FF37BD0000B803002002
S31508004CE4444F002016FF000010B50C0005F0E0FB49
S31508004CF4012805D105F0E5FE012801D1012000E0CF
S31508004D040020207010BD000038B502F0D6FB0078EC
S31508004D148007800F012801D0012400E0002401F057
S31508004D2495FF00280CD1012C04D1002234219C487B
S31508004D3402F0BCFE9B480DF01DFF9B480DF01AFFC0
S31508004D449A4D00220121681C02F0A0FE00220121CE
S31508004D54280002F09BFE964D00223821280002F016
S31508004D64A5FE00F0C3FA01F071FF002829D1002C32
S31508004D7427D10020352168541FE08948D1004018FE
S31508004D84417A9200AA184B0609D05368002B03D01F
S31508004D941B799B09DB0702D5802319404172D06928
S31508004DA4002805D13520285C80002818A549C1614A
S31508004DB43520285C401C3521685408462A5C062A96
S31508004DC4DBDB00F00DFB31BD38B59F4C0025607860
S31508004DD401280FD12800802306E07149C2008918EA
S31508004DE44A7A1A404A72401C0628F6DB09F04CF83F
S31508004DF428006070257004E000F04EFC2078401C02
S31508004E04207020780628F7DB00F0EAFA31BD00287E
S31508004E1406D167483421415C01220A4334214254AD
S31508004E24704730B4002822D10020010012E05C4A01
S31508004E34CB00D218537A5C06640E032C09D15C4C59
S31508004E448D0064196468A478240702D18024234059
S31508004E545372491C0629EADB554934228A5CFE2327
S31508004E64134034228B54514902004A7008700120B9
S31508004E7430BC7047F8B5040000F09BF90500062815
S31508004E840DDA4B4935228D54454BC0001818417A22
S31508004E944906490E4172012000F030F9F1BD694610
S31508004EA4200000F059F9002837D000210A000BE049
S31508004EB41B7A6E4636781F00BE4204D21600BE42DE
S31508004EC401D21A000D00491CC9B20E00062E06DAD4
S31508004ED4334BF6009B195E7A7606E9D10D002A0053
S31508004EE4062A14DA32493523CD5492008A185060BA
S31508004EF42B4B3520085CC0001818694609780172DE
S31508004F04417A4906490E417200F0DEFBF1BD2300E1
S31508004F14012200211E2003F03BF8F1BD10B500F074
S31508004F2448F906281DDA1E49C2008B185A7A8024C5
S31508004F3414435C721E4A23465B065B0E032B05D19B
S31508004F448300D3185B689B79FF2B0AD13523D05489
S31508004F540878012802D100F0CFFB10BD022000F02A
S31508004F64CDF810BD10B50200062A0BDA0C4BD40096
S31508004F741B195B7A5B0605D00D48920080184068B9
S31508004F84086010BD00220A600300012211461E2093
S31508004F9402F0FEFF10BD80B5694600F0DDF802BDDB
S31508004FA43C0100202857000830570008994D002076
S31508004FB4084500203EB505000024694600F0CCF8F3
S31508004FC4002810D0C179FF290DD001AA24200DF09C
S31508004FD412FF012801D1019C05E02B0001220221C0
S31508004FE41E2002F0D5FF20003EBD10B5002400F0B7
S31508004FF4E0F8062811DAA449C0000818407A4006E1
S31508005004400E012804D008D3032805D002D304E0AF
S31508005014012402E0022400E00324200010BD80B528
S3150800502400F0C7F806280BDA9749C0000818407A32
S315080050344006400E032801D1012002BD002002BD0E
S31508005044002002BDE85200083D45002080B500F066
S31508005054B0F8062801DA012002BD002002BD30B4EA
S315080050640021050001E0491CC9B2062918DA864A56
S31508005074CB00D218537A5B065B0E032BF3D1834B12
S315080050848C001B195B689C782407240FAC42EAD170
S315080050941B79DB09E7D1527AD209E4D1002000E072
S315080050A4012030BC704780B5010079480DF076FDC3
S315080050B401BD80B5010077480DF070FD01BD0120E2
S315080050C4754908707047704B19780200914200D1EF
S315080050D4704710B5187001280FD100223021181D09
S315080050E402F0E4FC6D4C00220121601C02F0CEFCA7
S315080050F400220121200002F0C9FC10BD10B50400ED
S3150800510462483521415C8A008018C0690278120910
S315080051149207920F022A0DD25B4BC9005918091D32
S3150800512405A312019A18A300D2589047002C01D05F
S3150800513400F044FA10BD0000ED30010813310108EF
S31508005144253101085F3101082D3603084336030863
S31508005154593603085D360308F8B504000F00002025
S3150800516405004A490968002912D1060001E03E7083
S315080051740500002D1BD13000C0B200F091F80028BC
S3150800518415D0017822009142F1D0761CF1E7401C33
S3150800519402000B78D2B29A4209D2C0B20A185278DF
S315080051A423009A42F3D1387000F07AF805002800F3
S315080051B4F2BD0100002001E0401CC0B206280EDA48
S315080051C4314AC300D218527A5206F5D02F4A8300C0
S315080051D4D218526812780B009A42EDD17047FF2014
S315080051E47047F1B4FF2318001900002208E0FF2BCA
S315080051F405D125000E00B54201D210002100521C2B
S31508005204062A1BDA204CD5006419657A6D066D0EDC
S31508005214032DF4D11D4D9600AD196D68AE78360789
S31508005224360F6F463F78BE42E9D1247A2D79ED09C7
S31508005234DDD19C42E3DA10002300E0E7F2BC7047B4
S3150800524470B40100FF200200002319E00E4CDD00B3
S315080052546419657A6D066D0E022D10D10B4D9E00EC
S31508005264AD196D68AD782D072D0F0E00B54206D120
S31508005274247A25001600B54201D2180022005B1CC8
S31508005284062BE3DB70BC70473C0100200845002070
S3150800529428570008305700083E450020994D00203D
S315080052A400B583B06A4601000D200DF0A4FD01285F
S315080052B401D100980EBD00200EBD000000B583B0D4
S315080052C4FF280DD06A46010024200DF094FD01281C
S315080052D406D168468088C0B20DF054FF00980EBD0A
S315080052E400A00EBD0064006400640064F0B583B0D9
S315080052F400246A46052108460DF07DFD002808D1DC
S315080053042346012203211E2002F042FEA848046017
S3150800531402E00098A649086004200DF033FFA5486A
S315080053240470A54C0CE0A3480078C0002018417A04
S315080053348022114041729F480078401C9D4908709C
S315080053449C48007806284ADAC00020187F25417A46
S315080053542942F0D0007AFFF7A3FF9549954A1278B7
S315080053649200891848609248924909788900401839
S315080053744668002ED7D00F27B0783840FFF760FF6D
S315080053848C490978884205D1C248B1783940401811
S3150800539431784170B0783840FFF723FF854909789A
S315080053A4884204D13078BB49B2781740C85570781A
S315080053B4FFF784FF7E497F4A127892008918C861EC
S315080053C47C480078C1006118497A0D40022DB2D193
S315080053D4774980000818C169891CC161ABE7F7BD24
S315080053E438B500242000AB4D01E02C7001200028BC
S315080053F418D12046FFF724FF062806DA6C498000F0
S31508005404081840680078687000E06C702046FFF75A
S31508005414E8FE0628E9DA6649800008184068007834
S315080054242870E3E731BD80B5BA493520085C8200A7
S315080054348918C969097809098907890F02D00129D0
S315080054440AD001BDB449C0000818406840000CD110
S31508005454022000F0B3F801BDAF49C000081800796E
S31508005464002802D1022000F0A9F801BD80B5032066
S31508005474FFF744FE01BDA7483521415CA64ACB0087
S31508005484D218527AD20900D1704780B589004018DB
S3150800549440688079FF2802D10320FFF72FFE01BD5B
S315080054A401209C4935228A5C920089184968097941
S315080054B409090200114204D197490978012900D043
S315080054C40020704710B5934C3520205C80002018C6
S315080054D440684078FFF7F2FE3521615C890061185F
S315080054E4C8610020FFF70AFE10BD80B5894835213A
S315080054F4415C89004018C169891CC1610020FFF715
S31508005504FDFD01BD70B582B02948060034367178B0
S315080055148900401844680F22A5781540E078217957
S315080055241140009103001B0902402178280002F06B
S315080055344BFF2800FFF755FE7178884211D1307861
S31508005544E840C00702D5A079FF2805D0207851493C
S315080055544855FF200DF0F2FF717800BF71A00DF0D9
S3150800556451FB73BD70B582B0114C3520205C8000A8
S31508005574201845680F22AE781640E8782979114034
S31508005584009103001B0902402978300002F068FFE5
S315080055943000FFF755FE3521615C0A00904203D1BD
S315080055A428783C4A9219507060A00DF02BFB73BD05
S315080055B4084500203D4500203C010020F8B5012897
S315080055C44AD066D3032834D063D2524F524E35207C
S315080055D4385CC00035186C7A6006400E012802D083
S315080055E402281BD0F1BDFFF75BFF012816D0FFF791
S315080055F47CFF3520385CC0003018417A802211407F
S3150800560402220A434272454C00202070FFF70BFF22
S31508005614207800283AD1FFF7A5FF37E08020044018
S31508005624032020436872FFF76DFF01203B49087089
S31508005634F1BD384F384E3520385CC00035186C7AC1
S315080056446006400E401E022823D8802004406C724F
S31508005654012032490870F1BD2E4F2F4E3520385C93
S31508005664C00035186C7A6006400E022811D18020D5
S315080056740440022020436872284C00202070FFF75B
S31508005684D2FE2078002801D1FFF76CFF01202146BD
S315080056940870F1BD994D002080B500201F49087097
S315080056A41D481F490978C9004018407A4006400E2B
S315080056B4401E012802D9801E03D001BDFFF7D6FE7D
S315080056C401BDFFF7D8FE01BD38B51348144909785A
S315080056D4C90040180124417A8022114021434172AD
S315080056E40E4D00202870FFF7EDFE2878002801D11A
S315080056F4FFF799FE2C7031BD074809490978C90096
S315080057044018417A802211404172012003490870E9
S3150800571470470000084500203C0100204B4E00203D
S315080057243D450020EC4C002003000000304A0020D0
S31508005734050000007CB50EF009F87B4D02F08EFBDF
S31508005744E8600024260006E030A0B10040580100B5
S3150800575400D08047761C102EF6D301F077FA00287D
S3150800576452D101F0AAFE00788007800F01283AD0AA
S3150800577422460921B74802F099F9B74E224608216C
S31508005784300002F093F922460B21280002F08EF924
S31508005794B24D22460921280002F088F9224608213A
S315080057A428000C3002F082F9AD4D22460921280062
S315080057B402F07CF92246082128000C3002F076F91A
S315080057C4224601213000083002F070F92000002832
S315080057D41AD168462100016001716946204600F025
S315080057E447F80120F3E720009A4C0BE06278002181
S315080057F4084602F0F4FA002803D0A07904210143EC
S31508005804A17101200028F1D073BD0000000000003A
S31508005814000000007DE2000821DB02080000000009
S31508005824A196000839160108CD8702086DB200084A
S315080058347F2201083D340308993801084DA101085F
S315080058444B330308FDC800080000000080B50100BA
S3150800585406D00300012211462D2002F099FB01BD52
S315080058647D48C178002902D00021C170818001BD1C
S3150800587410B5002906D101231A4605212D2002F068
S3150800588487FB10BD020006D00300012211462D2015
S3150800589402F07EFB10BD6F4C087820704878607063
S315080058A40879042807D16C48C078002803D06C48C6
S315080058B44078A07001E08878A070C878E07008790C
S315080058C42071A07901210143A171002000F0CAFDCD
S315080058D40020010061716049C88010BD80B50100CF
S315080058E407D00300012211462D2002F051FB0020A7
S315080058F402BD7A48007802BD80B5010009060BD0BE
S31508005904C0B20300012211462D2002F041FB0020FB
S3150800591469460880887004E068467149032205F0E0
S3150800592435FB009802BD00000C4D0020F8B50C00AC
S31508005934150000210E00002C01D0002D07D10323E9
S31508005944012205212D2002F023FB3046F2BD020078
S3150800595407D00300012211462D2002F019FB304618
S31508005964F2BD3C4F3879002806D0012810D0022809
S3150800597402D0042822D037E038782070B8786070CE
S315080059840800A070E17020716071A071E07130E0C8
S3150800599438782070601C791C032205F0F7FA2E4823
S315080059A4C0882071000A6071F879397A0906090CE9
S315080059B40843A071000AE07101261AE0274E3078E0
S315080059C42070601C711C032205F0E0FA708A2071AD
S315080059D4000A6071F079317A0906090C0843A07146
S315080059E4000AE071012604E00A460821200002F0B4
S315080059F44DF8012E18D11848C078002814D0184C30
S31508005A0420782870681C611C032205F0BFFA608A96
S31508005A142871000A6871E079217A0906090C084395
S31508005A24A871000AE87104E000220821280002F09F
S31508005A342DF83000F2BD80B52A49082205F0A6FAE9
S31508005A4401BD01000020274A5118C978002900D051
S31508005A5401207047D8010020E4010020F401002049
S31508005A640802002010B5010006D0030001221146E1
S31508005A742D2002F08DFA10BD1B4C1848210009226E
S31508005A8405F084FA1748217B0170617B4170A17B7C
S31508005A948170E17BC170217C0171617C4171618AED
S31508005AA4C18000220921200002F000F8002001002C
S31508005AB4E160216110BD80B5010006D00300012212
S31508005AC411462D2002F064FA01BD044881790222A8
S31508005AD40A438271002000F0C5FC01BDD8010020EC
S31508005AE4D9010020E4010020F4010020F0B58DB0AE
S31508005AF4010007D00300012211462D2002F048FABE
S31508005B040820CEE1002000F0ADFCBF4CA079C00807
S31508005B14C00701D50820C4E1002000F005FBE078A1
S31508005B240090E079217A0906090C08430590B748DC
S31508005B340DF0A4FE0099405CC0090790012069464F
S31508005B4408760022102108A801F0B0FFA079C00742
S31508005B5405D500200CF00EFF00200DF00DFF20786F
S31508005B6401A98870002622E03346012202212D204D
S31508005B7402F00EFA012F09D1A4480DF07FFE009910
S31508005B84405C8009C00701D5684606760098401C23
S31508005B94C0B2009005989D49C9680988049AD140FD
S31508005BA40A00D207D20F8018401C80B205900098CC
S31508005BB49649897A884200DBF1E094480DF05EFE46
S31508005BC40099405CC0090799884200D0E7E08F48ED
S31508005BD40DF054FE0099405C0007000F04908B48B2
S31508005BE40DF04CFE0099405C00098007800F01A95E
S31508005BF44979CF220A40000130210140114301A806
S31508005C0441718248C06800880499C840C007B648EC
S31508005C1406D40DF033FE0599405C694688800EE08B
S31508005C240DF02CFE0500B0480DF028FE05996918FC
S31508005C3449780902059A805C014368468180AB4825
S31508005C44049989004158080072D0300001AAD0701E
S31508005C5408A8049A8018027801AB1A71521C0270BB
S31508005C64A07901AA5279FE2313400200D207D20F63
S31508005C741A4301AB5A71FD231340022202401A4308
S31508005C8401AB5A71FB23134004221040184301AA9E
S31508005C945071BC4DF7220240E878431E9B41DB4312
S31508005CA4DB0FD800104301AA507101A888470700E2
S31508005CB40498042800D05DE7380000D05AE76078D5
S31508005CC469460873A07803A948700098887003A8E1
S31508005CD40EF01AF9012800D04CE760786946097B6A
S31508005CE40200914208D06946097B0B02034302224B
S31508005CF40D212D2002F04CF9601C03A9032205F09E
S31508005D0445F9304600F0AEFBA0780302E078034379
S31508005D1402220A212D2002F03BF930006071EE8040
S31508005D24A079F921014001200843A0713046B8E062
S31508005D3437000498002800D016E701A8407900091E
S31508005D4483079B0F1800012817D168468188C9B2B2
S31508005D54304600F0F4FA002801D10220A1E0022816
S31508005D6401D103209DE0012800D003E7A07940086B
S31508005D74C00700D5FEE6072093E0022806D1684648
S31508005D848188C9B2304600F055FA8AE0180000D175
S31508005D94F0E6012206212D2002F0FAF8EAE6A079B7
S31508005DA4F9210140A1716846007E002813D1607963
S31508005DB4401C6071C0B20A2808DB30466071714D18
S31508005DC4E8889D4A904201D0401CE880FE2008409D
S31508005DD4A071042065E0300060716A4DE8800120F6
S31508005DE40843A07100980949897A884210DAAB7881
S31508005DF45B1C9BB202220B212D2002F0C9F80098E5
S31508005E04E07030464DE000BFD80100200C4D00205C
S31508005E142079012835D1A178C04A527A521E914276
S31508005E242FDBE87800282AD0304603F095FD324661
S31508005E34E978104605F0F7FC3246E978104608F08A
S31508005E4497FD3246E97810460EF0BAF93246E978F3
S31508005E54104608F0F9FFE978304608F0FAFBE978C5
S31508005E6430460AF006FE304600F049FBA0790221C6
S31508005E740143A171304600F0F5FA012011E0022031
S31508005E840FE0012808D1A3785B1CA370DBB20222B9
S31508005E940C212D2002F07CF8E670304600F0E2FA78
S31508005EA401200DB0F0BD10B5010006D00300012293
S31508005EB411462D2002F06CF810BD994C2000994922
S31508005EC4092205F063F82F48017821734178617334
S31508005ED48178A173C178E173017921744179617478
S31508005EE4C088608210BD0000104D00203C350308B0
S31508005EF4F0B583B0002214000B00FE2B09D1894D9E
S31508005F04C6003618AD19AD782E0002D00124691ED4
S31508005F1423E0FF2B13D1834DC6003618AD19AD788F
S31508005F247E4EB44607000B2677436646F619767AFC
S31508005F34761EB54203DA2900491C01240DE0FF2B1D
S31508005F4401D1022409E0802B07DA744D0B26464357
S31508005F54AD196D7AAB4200D20124012C0FD1714BD5
S31508005F64C5002D185D196B462E781E706E785E7006
S31508005F749970DA70297919716946FFF779FC200056
S31508005F84FEBD0000E4010020FEB507000C00002554
S31508005F9400F041FA3E00A5498919CA78002A01D0B9
S31508005FA4497900E089782200FE2A04D1002902D022
S31508005FB401254C1E21E0FE2A0BD1FE213800FFF7ED
S31508005FC497FF0500012D18D1380000F024FA441E65
S31508005FD413E0FF2A06D1431E994203DA0C00641C17
S31508005FE401250AE0FF2A05D1FF213800FFF780FFC3
S31508005FF4050002E0824200DA0125012D1AD149483A
S31508006004F10089194018009001AE007830700098A4
S315080060144078707000988078B0702100C9B2380052
S3150800602400F0A7F9F07000980079307101A93800DA
S31508006034FFF71EFC2800FEBDFFFF0000F8B50400AC
S315080060440026FFF759FC009068460278210030467E
S3150800605401F064FE27007549CD19E97800295BD05B
S31508006064012831D1200003F077FC0122E9782000C9
S3150800607405F0D9FB0122E978200008F079FC012211
S31508006084E97820000EF09CF80122E978200008F04F
S31508006094DBFEE978200008F0DCFAE97820000AF04B
S315080060A4E8FC200000F02BFA1E48F900C91940182C
S315080060B4817902220A438271200000F0D3F9200074
S315080060C4FFF7C4FB012627E0042825D1200003F0A6
S315080060D443FC0122E978200005F0A5FB0122E978B2
S315080060E4200008F045FC0122E97820000EF068F843
S315080060F40122E978200008F0A7FEE978200008F0D4
S31508006104A8FAE97820000AF0B4FC200000F089FA1D
S315080061142000FFF79BFB01263000F2BD0C4D002042
S31508006124F4010020D8010020F8B5040027003F48F0
S31508006134C619F17820000DF04AFB694608706846CE
S315080061440078002870D0C648F900C9194518684669
S3150800615400786978884267D02879012864D104F0E0
S31508006164B0FC012860D1684602782100287801F03D
S31508006174D5FD6946487068464078012854D1F078B8
S3150800618400280DD12A480B2179434018407A3072E9
S31508006194200000F0E5F968783070A87870701EE081
S315080061A4200003F0D9FB0222F178200005F03BFB1E
S315080061B40222F178200008F0DBFB0222F1782000A5
S315080061C40DF0FEFF0222F178200008F03DFEF1787A
S315080061D4200008F03EFAF17820000AF04AFC6846E6
S315080061E40078F070002011497A008918C880694639
S315080061F4097869700100A970E970694649782971B6
S31508006204A97901220A43AA716871200000F02AF9C3
S31508006214200003F08DFB68460178200008F00DFA8B
S3150800622408F0BBFB08F025FEF1BD0000E4010020E0
S315080062340C4D0020FEB505000626C8484719F8780F
S31508006244002874D08648EA005219841801AB0A005B
S31508006254102120780CF0E5FD012861D10198037816
S3150800626400931846042855DA280003F075FB032220
S31508006274F978280005F0D7FA0322F978280008F0F7
S3150800628477FB0322F97828000DF09AFF0322F978A0
S31508006294280008F0D9FDF978280008F0DAF9F97821
S315080062A428000AF0E6FB280000F029F900980028DF
S315080062B404D1A07902210143A17125E0002001003F
S315080062C46171A64A6B00D218D180A179FD220A40D1
S315080062D401211143A1710099022901D1E07013E04B
S315080062E4032911D1A1783A7A521E914204DAE07050
S315080062F4A078401CA07007E00198037801220E21BB
S315080063042D2001F045FE0226022E16D0280000F0A4
S31508006314A9F812E0012208212D2001F039FE0CE02B
S315080063242378012209212D2001F032FE05E00023FD
S31508006334012207212D2001F02BFE3000FEBD7CB57D
S3150800634400246B460A001021454DC6003018285C07
S315080063540CF067FD01280AD100980378032B01DAAB
S315080063641C0004E0012208212D2001F011FE200062
S3150800637476BDF3B500273C003D00C1490B225043C6
S315080063840E1830000DF07AFA69460078C0090870CC
S3150800639401E07F1CFFB2B07A874217DA30000DF0AD
S315080063A46DFAC05DC00969460978884207D030008D
S315080063B40DF064FA6946C05DC00908706D1C2800B2
S315080063C469460979C0B28842E3D13C002000F6BD8B
S315080063D4F3B5002701242500A94E14E06846007881
S315080063E40B21484330180DF049FAF1680988EDB2D3
S315080063F44019401E00780007000FC14021407F184D
S315080064047F1CBFB26D1C684600792900C9B2884250
S31508006414E4D23800F6BDF0B5012499490B2250435D
S315080064240D1828000DF02AFA00780600F609002748
S3150800643410E028000DF022FAC05DC0093100884238
S3150800644406D028000DF01AFAC05D0600F609641C89
S315080064547F1CFFB2A87A8742EBDB2000C0B2F0BDEE
S31508006464D8010020F8B505002E008648F1008919E0
S31508006474441883480B21714347180097A378627818
S315080064842900207801F054FB0128A07933D1E1785A
S31508006494BA7A914225D2F7210140A171E178280000
S315080064A4FFF796FFE071000A20722C488019C1781C
S315080064B4002906D161780170A17841700021017123
S315080064C40BE02179042901D0032904D161780170EC
S315080064D4A178417001E0A1780171280000F060F804
S315080064E4F1BD08210143A1712B00012204212D20AD
S315080064F401F04EFDF1BD08210143A171F1BDF8B5C6
S315080065040600F0008019604F3C185E4908182100FF
S31508006514092204F03BFD11488119BD192A7B0A702A
S315080065246A7B4A70AA7B8A70EA7BCA702A7C0A71DB
S315080065346A7C4A7171007E18728A4018C2800022E9
S315080065440921200001F0A2FA0020010029736973C9
S31508006554A973E973297469747082F1BDE401002092
S3150800656438B50400E0000119474D6818454A511822
S31508006574092204F00BFD29194448021913780B73F0
S3150800658453784B7393788B73D378CB7313790B74D3
S3150800659452794A7461004018C0886918488231BD26
S315080065A4FEB500273C003D00060035480B21714323
S315080065B4401801900DF062F969460078C00908721E
S315080065C401E07F1CFFB23148801900900198807A57
S315080065D487421DDA01980DF051F9C05DC009694674
S315080065E4097A88420DD001980DF048F96946C05DCC
S315080065F4C00908720098C078002801D1641C00E01C
S315080066046D1C2048F10089194018C0788742D8D1F2
S315080066140098C078002801D10098847000984571C4
S31508006624F7BDF8B50600F0008019174F3918009120
S31508006634174C2018092204F0A9FCA019BD19297BB6
S315080066440173697B4173A97B8173E97BC173297CD7
S315080066540174697C417470003E18718A201841825D
S3150800666400220921009801F011FA0020010029737B
S315080066746973A973E973297469747082F1BD00009A
S315080066840C4D0020D801002008020020E401002057
S31508006694F401002080B5C020C0002949086000F034
S315080066A48DFB28480021018027498160274A01007B
S315080066B40C31001D0EF067F825482649C1602649A5
S315080066C481602649416026490160264826490160B9
S315080066D42649416026498160AF49C16072B600F017
S315080066E489FA01BD80B5012000F0FEFA01BD10B497
S315080066F4C20018231340FF249C40E2438901C9B20F
S31508006704994003000BD5A5481B071B0F083B9B089C
S315080067149B00C01803681A40114301600DE0A04CA1
S315080067249B089B00E3181C68224011431960012149
S31508006734C006C00E81409B48016010BC704700002B
S31508006744000001402C4D0020003000080000002005
S31508006754BC3F0220596561726C3130306C706F6FC2
S315080067645768697270300220454553204F72676135
S315080067746E697A61F8B500F08DFB0EF0B3F800285F
S3150800678401D100F04FFC00F093FC0120040000F056
S315080067945DFA002801D10EF03BF900F0D3FB641C26
S315080067A4002000F0A1FA641C00F054FD7E4800782D
S315080067B440071CD4032C01D000F034FC082000F058
S315080067C455FA00F0B1FB641C7F20784908607848C4
S315080067D47849086000F02CFC641C7F207349086023
S315080067E4734874490860042000F040FA00E0A41CC9
S315080067F4052C01D000F016FC00F02CFD6E4800783C
S31508006804002800D0C5E000F025FD21006B4800787B
S3150800681404020C4321006A48007804040C437F20D0
S31508006824624908606248634908602000B424E405A4
S315080068340443644805006448A84203D3002028702A
S315080068446D1CF8E7641C5F4805005F48A84209D335
S315080068542878002802D020005C4C0440FF202870C9
S315080068646D1CF2E7641C7F20504908605048514962
S315080068740860544805005448A84209D32878FF28D4
S3150800688402D02000514C0440002028706D1CF2E709
S31508006894641C4D4805004B48854209D328780028CE
S315080068A402D02000494C0440FF2028706D1EF2E7F0
S315080068B4641C7F203D4908603D483E4908604248BB
S315080068C405004048854209D32878FF2802D02000CD
S315080068D43E4C0440002028706D1EF2E7641C3948BB
S315080068E405003948A84207D32878002802D0200092
S315080068F4364C04406D1CF4E7641C200E0006B421D3
S31508006904C905884201D000F08DFB7F20274908601D
S315080069142748284908602B4805002B48A84216D35F
S31508006924286807007F202149086021482149086012
S3150800693401200600002E07D02E602868B04201D038
S3150800694400F070FB7600F5E72F602D1DE5E77F2044
S3150800695416490860164817490860E0B20B2801D0A2
S3150800696400F060FB00F01AFC2000000C14490870C3
S31508006974200A12490870B848007820210143B6480D
S31508006984017000F079FC042000F070F90EF054F858
S3150800699401E00EF057F8F1BD74696F6E1CED00E066
S315080069A400E400E000E100E02F000020002C004095
S315080069B4AAAA0000003000402E0000203000002063
S315080069C42C00002000000020FF3F0220FFFFFFA547
S315080069D4F0B583B00F2104200EF0A4FDEFF3108068
S315080069E4019072B60DF094FF002804D1002200210C
S315080069F421200EF04FFE019880F3108800F0FAF873
S31508006A04A5200400002000900098FF287CD893490C
S31508006A1493480DF0CBFE8C4840680500681C0700B7
S31508006A24681E06008F48854203D1681C0700A81C07
S31508006A3406008D48854203D1A81E0700681E060075
S31508006A449248854203D1681C0700A81C0600681CE6
S31508006A549749884203D1A81E0700681E0600EFF36B
S31508006A641080019072B63878000629780904014323
S31508006A74307800020843E4B2044355202870002005
S31508006A843870002030702878552801D0A520844312
S31508006A94FF203870FF2030702878552801D0A520AB
S31508006AA48443AA2028700020387000203070287883
S31508006AB4AA2801D0A5208443FF203870FF2030700F
S31508006AC42878AA2801D0A5208443200E3870200AE5
S31508006AD430702000000C2870019880F310886248F2
S31508006AE4854202D15F48050000E06D1C7048854266
S31508006AF401D1664805002A00584959480DF043FE55
S31508006B040098401C00907FE7E0B2A52804D0002234
S31508006B1400211F200EF0BEFD6948006869498842B5
S31508006B240ED1674840686849884209D16448806834
S31508006B346649884204D16248C0686549884204D0D7
S31508006B440022012116200EF0A5FD6248006862495C
S31508006B5488420ED15F4840686049884209D15D4839
S31508006B6480685F49884204D15A48C0688C4988427B
S31508006B7404D00122012116200EF08CFD10210420D8
S31508006B840EF0D0FCF7BD10B5112104200EF0CAFC96
S31508006B9400200400A4B2082C27DA04222A48018813
S31508006BA4294880680EF0CCFD274908802648806865
S31508006BB4001D25498860244880684A49884212D3BA
S31508006BC47848008820490988884206D0754802888A
S31508006BD41D48018820200EF05DFD00201A49088012
S31508006BE4714819498860641CD4E7122104200EF000
S31508006BF499FC10BD7F206D4908606D486D49086091
S31508006C0470476D4897490860704797487047000071
S31508006C140021030001E000BF491C0A0092B29A420F
S31508006C24F9D3704780B500F015FB904802BD8D492D
S31508006C34614A012801D10A60704700208C4B1870FC
S31508006C448C4B18700A6070472C4D002080B500F0F4
S31508006C5401FB8948007802BD2D000020384D00202C
S31508006C64304D002000000020FF3F022010B504002C
S31508006C7400F0A2FA00F0EEFA7D482F21415C0C439D
S31508006C842F21445400F0F8FA10BD0000000000005B
S31508006C9410B5040000F090FA00F0DCFA74482F21CD
S31508006CA4415CA1432F22815400F0E6FA10BD00008E
S31508006CB400000000A24800688102B54808407047F1
S31508006CC4BC3F0220576869726C706F6F6C31303044
S31508006CD45965617270300220454553204F726761C9
S31508006CE46E697A61FB8F0308F8B500210B00EFF390
S31508006CF4108472B6A74A9160A025ED001560950C1C
S31508006D04D56091610025ED431562002810683DD1D0
S31508006D14A14D054015600220A04D2E6806432E603D
S31508006D24504F07E05B1C9BB2FA26B600B34201DB60
S31508006D34214E3E602E687607760F022EF2D1984BC6
S31508006D44D3601368C5051D4315600B003E4607E06E
S31508006D545B1C9BB2FA25AD00AB4201DB164D3560D0
S31508006D641568AD01F4D59368184390600B009068D4
S31508006D743821014010290DD05B1C9BB2FA208000F3
S31508006D848342F4DB0C4831460860F0E7C021490128
S31508006D940143116000F012F884F31088F1BD000075
S31508006DA474696F6EFC8F030800300008002C0040DD
S31508006DB4AAAA0000003000400400FA0530B587B0DE
S31508006DC4744C3820A1680140102919D1E168890753
S31508006DD4890F022914D1E06800094107490F491CA3
S31508006DE492480EF0D8FDE168090A4906490E484357
S31508006DF4E168490F491C0EF0CEFD1B49086010E0F6
S31508006E04194DA16808400AD1884801212268D20A86
S31508006E145207520F91400EF0BBFD286001E0002096
S31508006E24286002A815A1102204F0C4F8684600BF19
S31508006E3416A10CC90CC00C4D2868686002A9A26882
S31508006E44120A1207120F895CC8406860A86069466E
S31508006E54A268120B5207520F895CC840A86007B093
S31508006E6430BD00000CED00E0D04D00202C000020C1
S31508006E7400000020D43F02202E000020000000005D
S31508006E8400000000010203040607080900000000C8
S31508006E940102030430B47B4801680122914301606E
S31508006EA472B67948794981607949C160794901613D
S31508006EB43F21416000218160C16001614160820D0A
S31508006EC48261C0225205C261012202624161002226
S31508006ED4D243714B1A60714B1A600B00704D02E075
S31508006EE4A40029515B1CDBB21C00092CF8DB6D4994
S31508006EF46D4B196002606D49284A1160C169802288
S31508006F0412050A43C261A44806210160A8494160E2
S31508006F14F121C9028160400DA6490860C020C0005D
S31508006F24BC49086030BC704700B5BB480078C0B29D
S31508006F3440090100C907C90F002900D1FEE700BDB1
S31508006F44E075FF1F10B500200200A2490B68012452
S31508006F541C430C60A04C07E0521C92B2FA239B0017
S31508006F649A4201DB9D4B23600B689B07F4D5AB491A
S31508006F74AB4A0A6003224A60FA2252008A60A94A86
S31508006F840A60C34A0A600860FFF734FE10BD0000B1
S31508006F9400FCFF0300100240FFFFFFFE0020024032
S31508006FA43240067681B0002069460870894801682F
S31508006FB4C022D2050A4002D020216A46117001680F
S31508006FC4002905D569466A461278022313430B70CD
S31508006FD40168902252050A4005D069466A46127825
S31508006FE4102313430B700168090105D569466A46DF
S31508006FF41278802313430B700168490106D5694644
S315080070040978002902D140216A4611700168802254
S3150800701412040A43026001689E4A0A400260009804
S3150800702401B070476D486C49086070470024F40045
S3150800703480B50020984908809848974988609848F8
S3150800704495498968884214D304229348018892484A
S3150800705480680EF064FB904908807F209149086097
S3150800706470486E4908608C488068001D8A498860A3
S31508007074E5E78D48008888490988884201D0FFF7E2
S31508007084D1FF01BD10E000E0201002400310050006
S31508007094B7F3FFF701D8170080E100E080E200E0CB
S315080070A400E400E00030000808ED00E002020400F5
S315080070B4F0B58FB000252C002F0000F091F80600DB
S315080070C406227A49FF200EF0BDFC79490091897899
S315080070D4814202D10098047800E02E00300001D1E4
S315080070E400F05CF800F0B6F83322724902A803F0FF
S315080070F461FFFFF757FF019002A82D3001A90A780E
S31508007104027002A82C30C078010704D4104602A9DC
S315080071142C22885405E0F721014002A82C30C170BE
S315080071240127822002A92C22895C014207D1002E5C
S3150800713405D0012F03D000994978142918DB02A930
S315080071442C318D7002A92C314D7102A9895C01423A
S3150800715401D02C0008E000984078142804DAFF2CA3
S3150800716402D0002F00D1641C02A82C3004710AE056
S3150800717402A82C304079401C02A92C314871012000
S3150800718402A92C318870332202A94A4803F012FF57
S3150800719400F072F80FB0F0BD0458014080B500F055
S315080071A40BF8424800210160818000F065F801BDB2
S315080071B4371C60C000700040002008E03E49095CA6
S315080071C43C4A115418A1095C3C4A1154401C2C2809
S315080071D4F4DB7047601002400CED00E00400FA0589
S315080071E410B4012000210A0001E0521CD2B22C2A54
S315080071F40DDA304B9B5C00BF31A4A45CA34205D1D5
S315080072042E4B9B5C08A4A45CA342EED0080010BCD9
S3150800721470470000000001402D00002000300040A7
S3150800722455550000AAAA0000697420697320746879
S315080072346174207468696E67207468617420646F69
S3150800724465736E2774206C657420796F7520736C6A
S315080072546565700010B5174C062221002C31FF20F5
S315080072640EF0F0FB3221615C814204D0FF22114604
S3150800727417200EF00FFA10BD10B50E4C0622210089
S315080072842C31FF200EF0DEFB3221605410BD0000C5
S31508007294CCCC0000FFFF7FFF2C4D002000300008F7
S315080072A4FB8F0308002C0040FC8F03082C000020E9
S315080072B43000002000000020C4720008D43F0220D9
S315080072C4447265616D206973206E6F7420746865F5
S315080072D4207468696E6720796F75207365652069FF
S315080072E46E20736C6565702062757400F0B587B09E
S315080072F40EF03EFC7C487D49431A7D4CA34209D3D3
S315080073049BB2032201213C2000F042FE0221002008
S3150800731402F090F877487849401AB349B34A891A6B
S3150800732489B24318A34209D39BB2032200213C2005
S3150800733400F02EFE0221002002F07CF8EFF3108004
S31508007344009072B60026AA4D0027FF43FFF77EFC7D
S31508007354002800D07FE0FFF74DFCAF60A548066023
S31508007364A5480660A548A649086004970197300011
S3150800737428710C22014604A80EF004FC641E0C2293
S31508007384210001A80EF0FEFB2879F021014029719D
S3150800739404989A49884201983BD1884214D101A895
S315080073A4408904A949890200914207D2002805D0D8
S315080073B43146200000F006FAAE604AE02100304665
S315080073C400F000FAAC6044E0C943884205D13900AC
S315080073D4304600F0F7F9AC603BE03900304600F07F
S315080073E4F1F9AC602979032002000A40012A04D184
S315080073F4FC220A4002211143297129790A009208BC
S315080074041040012825D1F320084008210143297199
S315080074141FE088421BD13900200000F0D3F9AE6082
S315080074242979032002000A40012A04D1FC220A40D1
S3150800743402211143297129790A009208104001286A
S3150800744407D1F320084008210143297101E000F01F
S3150800745494FA00F091F900F0FEFA30002870A86852
S31508007464B84212D180242401200000F069F9B348F7
S3150800747404900C2204A920000EF07EFB304600F08E
S315080074845FF9AE605E48468109E0002803D13046BC
S3150800749400F056F903E08020000100F051F9FFF7E7
S315080074A4A9FB009880F3108807B0F0BD80B500F0FA
S315080074B4BFFA01BDBC4908707047BC487047002034
S315080074C44F4909684D4A914200D0704780B501F08A
S315080074D4C3FF002801D00EF04BFBC320B449087043
S315080074E400F090F802BD0000600800205C07002048
S315080074F4010800003004002044000020FEB50027DF
S315080075043E0001F0A9FF002801D00EF031FB384DEA
S31508007514A868002803D080210901884261D1384827
S315080075244089401C36494881EFF31080029072B6B0
S315080075340EF00FFD9F4CA048A049421A92B22100B2
S315080075449E480EF0ECF82E49088127482749401A28
S315080075546946888068468288210024480EF0DFF848
S3150800756427498880FFF746FBAC680C22244920008B
S315080075740EF002FB00281DD10C21200000F0E2F9D0
S3150800758404008D488D49401A0090024692B22000A4
S315080075940EF0F2FA00280DD10099200000F0D2F975
S315080075A4040068468288114920000EF0E5FA00288E
S315080075B400D10126FFF71EFBA868002803D1802006
S315080075C40001A86000E0AF60A86800F0B9F80128D7
S315080075D400D03E00FFF70EFB0EF0D9FC029880F3AC
S315080075E410883000FEBD00005C070020300400202F
S315080075F4DC4D00206C020020500400205A5AA5A530
S3150800760438000020F0B583B0002601F025FF0028D5
S3150800761401D00EF0ADFA644DA868002803D0802185
S31508007624090188425AD1EFF31080019072B60EF020
S3150800763490FC63484089401C614948815E4F5D4C13
S3150800764438005E49421A92B221005C480EF067F887
S315080076545B490881BA48D349401A6946088068468E
S3150800766402882100CF480EF05AF855498880FFF75A
S31508007674C1FAAC680C22524920000EF07DFA0028A3
S315080076841CD10C21200000F05DF904004B483F1A78
S315080076943A0092B2014620000EF06EFA00280DD187
S315080076A43900200000F04EF9040068460288BD49F6
S315080076B420000EF061FA002800D10126FFF79AFA95
S315080076C4A868002803D180200001A86001E00020F2
S315080076D4A8600EF05CFC019880F31088012E08D18E
S315080076E42879F021014005200843287100F097F90C
S315080076F401E000F089F93000FEBD70B5002480254C
S315080077046D01280000F01CF8012815D1EFF3108646
S3150800771472B60EF01EFCBB49C4480A00821A92B21D
S3150800772428000EF029FA002802D100F025F80400F2
S315080077340EF02DFC86F31088200070BDA5A55A5AB4
S31508007744F8B5040000256846057001273E0002E0E6
S31508007754761EF8022418300000060AD06846077018
S31508007764FFF748FA20000EF017FA0028F0D068460A
S31508007774057068460078F2BD70B50024A14DAB4883
S315080077842900461A300000040BD0FFF733FA3200FA
S3150800779492B28021490128000EF0F4F9002800D19C
S315080077A40124200070BD0000DC4D0020E04D0020BF
S315080077B427040020FFFF00003004002044000020B6
S315080077C438000020F2B588B0040004D080200001F7
S315080077D4844200D0B2E0A24F0C22210038000EF0F9
S315080077E4D1F908980021C943884204D00C220146DD
S315080077F405A80EF0C7F90C21200000F0A3F806002E
S315080078040C21089800F09EF80290964C964D601B41
S315080078140090024692B2310028000EF0B3F928000F
S31508007824201A6946888068468288904928000DF09F
S3150800783476FF8F4C3989884206D12079FC2101408C
S315080078440120084320711CE008980021C943884296
S3150800785417D0009A92B2029928000EF093F9684656
S315080078648288824928000DF05AFF010005AA128968
S31508007874914206D12179FC220A4002211143217141
S3150800788438817C480178C3290AD1E8210170207916
S31508007894FC210140217100220099280000F006F914
S315080078A400F058F800280AD02079FC2101402171FB
S315080078B400220099280000F0F9F800F05EF8009913
S315080078C4300000F03FF804900099029800F03AF866
S315080078D403901B4D334EA81B0090024692B204999E
S315080078E430000EF04FF930002D1A2A0092B25F4983
S315080078F40DF015FFB988884206D12079F321014095
S3150800790404200843207119E008980021C9438842D5
S3150800791414D0009A92B2039930000EF033F92A0073
S3150800792492B2524930000DF0FAFEB988884205D160
S315080079342079F321014008200843207109B0F0BDDD
S315080079445C0700204018C108C900814201D208001A
S315080079540830704700204849484A12680B8892B292
S315080079649A4200D00120464A464BD218121F128862
S3150800797449888A4200D0012070473F483F49096830
S3150800798401803F493F4A8918091F09884180704781
S3150800799437480078012800D0704780B500F023F8EE
S315080079A401BD00003004002031480078002800D0CA
S315080079B4704780B50120FFF73AF901BD10B50020DC
S315080079C4FFF7BEFEFFF716F9294CA068FFF7B8FEC5
S315080079D4FFF710F90020A06000F00CF810BD80B580
S315080079E4FFF710FE01BD28480178012901D10221BB
S315080079F40170704724480178042901D102210170D5
S31508007A04704700005C0700201F480178022900D04F
S31508007A14704780B504210170FFF7D0FF01BD1A48ED
S31508007A240178022901D103210170704760080020FA
S31508007A3480B515480078012804D00BD3032807D04D
S31508007A4403D301BDFFF7A4FF01BDFFF7C8FF01BDBE
S31508007A54FFF7AAFF01BD01200B4908707047000013
S31508007A64380000203004002044000020FFFF0000F6
S31508007A74DC4D00202704002018040020FC8F03088E
S31508007A840090030800580000984F00201206130AB5
S31508007A941A43130C1A4300BF094205D083070BD0B7
S31508007AA40270401C491EF9D1704700001206130AD9
S31508007AB41A43130C1A4300BF130030B414001500FC
S31508007AC4103902D310393CC0FCD2490700D30CC084
S31508007AD400D504C0890002D30280801C002900D581
S31508007AE4027030BC704700000022D5E70022E3E7A5
S31508007AF47CB505000E0000246B4609228121490045
S31508007B040BF08FF901280BD10098835D812B01DADC
S31508007B141C000BE0012211464D2000F039FA05E05D
S31508007B242B00012202214D2000F032FA200076BDF6
S31508007B34F9B585B00C9EFF20307200240B2906D3B4
S31508007B440B00012203214D2000F022FAABE0802A23
S31508007B5406DB1300012204214D2000F019FAA2E0E5
S31508007B646846007E0490802807DB6846037E012267
S31508007B7405214D2000F00CFA95E001AB4BA0490015
S31508007B84415A6846007D0BF04CF90400012C00D0DC
S31508007B9489E00124039406216846007D0BF048F920
S31508007BA4012800D1022407216846007D0BF040F91C
S31508007BB4012801D1022003902000039945180921C0
S31508007BC46846007D0BF0FBF8012800D16D1CEDB268
S31508007BD42F0001ADA88839000DF0DAFE70726846E8
S31508007BE4007E717A884256D20198049979434018DE
S31508007BF40190022C08D1014608784A781206120C1C
S31508007C0410436946488002E000786946488001982E
S31508007C1400190399022907D1017842781206120C31
S31508007C2411436846018002E0007869460880019895
S31508007C3403996118405C307201AB68464288062194
S31508007C44007D0BF0EEF80400012C1CD1A888B07254
S31508007C54310001980EF072FA01AB684602880721D2
S31508007C64007D0BF0DEF80400012C04D1311D0198C7
S31508007C740EF064FA17E068460388012209214D20AC
S31508007C8400F086F90FE068464388012208214D2052
S31508007C9400F07EF907E06846037E012205214D209F
S31508007CA400F076F90024200007B0F0BD300031005A
S31508007CB43200330034003500360037003800390006
S31508007CC43A000000F2B582B007001600FF25FFF758
S31508007CD40FFF0190002410E06B4622006846017AE3
S31508007CE4380000F0C9F8012806D100984078000742
S31508007CF4000FB04200D12500641C2800E4B20199A3
S31508007D048C4201DAFF28E7D0FF2805D13300012287
S31508007D140C214D2000F03CF92800FEBD10B582B0B8
S31508007D24FF246B4600F0A8F8012803D10098407890
S31508007D340407240F200016BDF2B582B0070016000A
S31508007D44FF24FFF7D5FE009000250AE02A006846BE
S31508007D54017A380000F016F83100884200D12C0068
S31508007D646D1C2000EDB200998D4201DAFF28EDD092
S31508007D74FF2805D1330001220C214D2000F008F913
S31508007D842000FEBD10B582B0334C6B4600F074F883
S31508007D94012801D100988488200016BD10B582B048
S31508007DA400246B4600F068F8012807D1009840784B
S31508007DB4000900990978E0240C400443200016BD04
S31508007DC410B582B000246B4600F056F8012804D199
S31508007DD400980078C00600D50124200016BD10B509
S31508007DE482B000246B4600F047F8012803D10098B6
S31508007DF400784407640F200016BD0000F7B5060096
S31508007E040D001F00144CFFF789FF012821D16B468A
S31508007E146846027A2CA06900415A30000BF001F832
S31508007E24012816D10020040069468988891FC9B229
S31508007E343D0007E0954203D31A7A1402DA7914430B
S31508007E44C01CC0B2884204DA009A13189A79FF2A29
S31508007E54F0D12000FEBD0000FFFF000000B583B08E
S31508007E646A46062105200AF0C6FF012801D10098B2
S31508007E740EBD00BF1AA00EBD30B583B004001D00A8
S31508007E84002028606B4600BF0FA04900415A200015
S31508007E940AF0C7FF01280ED168468088062803DB46
S31508007EA40098286001203EBD230001220B214D20A5
S31508007EB400F06EF805E0230001220A214D2000F0A7
S31508007EC467F800203EBD00001501160117011801C8
S31508007ED419011A011B011C011D011E011F010000C5
S31508007EE40000000010B4002140480A00027006E0B1
S31508007EF45300C3183E4C1C810C009C83521C0A2A4E
S31508007F04F6DB0E21017110BC704770B5374CA078AA
S31508007F14401CA070C0B250280BDB002061781329DE
S31508007F2402DB0121E17001E00100E17001006170EA
S31508007F34A070E078002802D0A078002827D12078FD
S31508007F44002824D00EF041FB002820D104230F2258
S31508007F54114618460EF088F9050018D02078401EF8
S31508007F64C0B240002618318928000EF01BFA0128F1
S31508007F740DD1B18B28000EF015FA012807D1280077
S31508007F840EF040FA012802D12078401E207070BDF8
S31508007F94F2B504001D00154E37780A2F1FDA30791A
S31508007FA40121914008421AD01222310008313000CA
S31508007FB40A300FF09FF8122231001C3130001E30AF
S31508007FC40FF098F820026946097808433081B5838A
S31508007FD47F1C37707078FF2801D0401C7070F1BD83
S31508007FE4024908717047014800797047A84600207D
S31508007FF4FFFF0000F8B5884E0A2201213000FFF77A
S3150800800455FD0024200010E02046FDF775FC00907D
S315080080146846027821460846FFF780FE012801D003
S31508008024042801D12000307001200028ECD0FEF786
S315080080340DFE0700A24D1AD1FFF73FFA0078800813
S3150800804480070AD122469F492800FFF72FFD2346B9
S31508008054012207215620FFF79BFF0FF06BF870806B
S31508008064A888AF49884208D0401CA88005E0E8885B
S31508008074AB49884201D0401CE880746006E00A00D7
S3150800808412090F2A01DA103101700124002C15D1C6
S3150800809430780A28F9DA3721484328188F300178C6
S315080080A4002FECD10F2213000B400F2BEDDAF0232F
S315080080B40B40491C0A401A430270E6E7F1BD80B535
S315080080C40FF038F854494A88FA239B00801A80B27C
S315080080D498420FDBD0184880794802680023DB43AE
S315080080E49A4201D0521C02604A68521C4A602E30D9
S315080080F405F0D7FC01BDF0B40023180070490C89BB
S31508008104092C01DA1C0001E0093CA4B21A0001E0BA
S31508008114401C5B1CDBB21D00052D25DA6E007519A3
S315080081246D004D19A74EAD19012A10D02E79002ECF
S315080081340DD02E786F783F063F0C3E43F60B06D1DA
S31508008144AE78EF783F063F0C3E43A642E0DA2A783B
S315080081546E783606360C32438026360216432E705F
S31508008164360A6E700122D4E7C0B2F0BC704700200C
S315080081740CE053494200121852008918914A89188A
S315080081840A8880231B0213430B80401C0528F0DB56
S3150800819470470000F8B50C0000283BD1484F798990
S315080081A45F48814201D0491C7981210008D01029F1
S315080081B406DA49007918CA89824201D0521CCA8152
S315080081C40923372200213800883000F0C9F9002530
S315080081D4280000E001200028FCD028000E49087079
S315080081E43E008C36347001F0D6FCB0800CE00021D9
S315080081F40AA0405D02F0D4FCFF2804D002F03CFD3E
S315080082047919922288546D1C1B2DF0DB012100205C
S3150800821400F028FAF1BD0000F44E002001020D0E0C
S315080082240F1011121314151718191A1B23242527AE
S31508008234282F323334356300F4B504002700012FA0
S3150800824406D11F480289364DAA4201D0521C028122
S31508008254002934D1C048067831000A292CDA18488E
S31508008264C2689BB2D518954201D20025ED43C56074
S31508008274372251434018050088352B701B0A6B704A
S31508008284281D6946032202F081FEA878E9780906C2
S31508008294090C08434004400CE1030143A970090A88
S315080082A4E970012F04D10421300000F0DBF903E062
S315080082B40321300000F0D6F90A20A7490870F1BD59
S315080082C4580400200203000038B5050000240A28D3
S315080082D41EDAA249372250430818040088349E48F7
S315080082E400782900884219D10020FBF76CFC20701D
S315080082F4000A60700020FDF7FFFA0090201D694609
S31508008304032202F043FE0221280000F0ABF905E03F
S315080083142B00012211465620FFF73AFE200032BDF3
S31508008324FFFF000080B5052807DA8C4942001018BB
S31508008334400008182349401802BD030001220221FF
S315080083445620FFF725FE002002BD80B5022807DA6D
S3150800835482494200101840000818C849401802BD4E
S315080083640300012203215620FFF712FE002002BD56
S315080083747A48704780B5052808DA78494200101803
S3150800838440000818B3218900401802BD03000122E1
S3150800839405215620FFF7FCFD002002BD80B5022802
S315080083A407DA6E494200101840000818B449401804
S315080083B402BD0300012206215620FFF7E9FD00202D
S315080083C402BD0000AE020000F2B584B00700160034
S315080083D41D000A9C2000039028000290300001909A
S315080083E46846007C00903B00ACA007C800F04BF838
S315080083F45948C15D59480A292ADA3722514341188E
S3150800840488318F78CA781206120C1743F0221201A3
S315080084149C4B1F40360216403E438E70360ACE7079
S315080084244E788F783F063F0C3E433605360D2D03AE
S3150800843435434D702D0A8D704D788E783606360C78
S3150800844435432B40240222401A434A70120A8A7082
S315080084546946097C894A801805F05DFB05B0F0BDBC
S315080084641FB50C000699039102930192210000910D
S31508008474030000BF8CA007C800F005F82100824855
S3150800848405F065FB1FBD77B583B00B9C0C9E0D9D4F
S315080084942800019030000090230003A807C800F0C4
S315080084A482F8012807D103984079FF283ED0401C5A
S315080084B4039948713AE0039908784A781206120C27
S315080084C41043704A02402002F0231B010340134361
S315080084D40B701B0A4B70039908784A781206120C1B
S315080084E410436A4A02403001F023034013430B70D9
